:0200000280007C
:10000000F808002009070800050708000507080090
:1000100005070800050708000507080000000000A4
:1000200000000000000000000000000005070800BC
:10003000050708000000000005070800F503080098
:100040000507080005070800050708000507080060
:100050000507080005070800050708000507080050
:10006000910D0800050708000000000005070800C2
:100070000507080005070800050708000000000044
:100080000000000005070800050708000507080034
:100090000507080005070800050708000507080010
:1000A0000507080000000000050708000507080014
:1000B00005070800050708000507080005070800F0
:1000C00005070800050708000507080005070800E0
:1000D00005070800050708000507080005070800D0
:1000E0000507080005070800050708003903080090
:1000F0000507080010B5054C237833B9044B13B13C
:100100000448AFF300800123237010BD3C0400209D
:1001100000000000781508000C4B43B10C4810B5E6
:100120000C49AFF300800C48036823B910BD0A489E
:10013000036833B97047094B002BF7D0BDE8104076
:100140001847064B002BF5D0184700BF00000000F1
:100150007815080040040020781508000000000011
:100160000B4A136843F020031360A2F50132A2F595
:100170003F72136843F0800313600C32136843F03E
:1001800001031360103A136843F0020313607047D1
:1001900000070E40014B186D80B2704700000C4004
:1001A000632801D90020704701207047F0B4571828
:1001B000082FD4BF00230123082998BF082A5CD840
:1001C0000D46002B59D12E4A136823F0010313600A
:1001D00013692C4B4FF440745C641C6F24F00304CF
:1001E0001C6703245C605C66A3F50063264CC3F8BF
:1001F0000C41D3F8004144F40064C3F8004150615D
:10020000002419E01E4801F110035B01C21800260A
:10021000566000EB41124FF00056C2F808624FF0F2
:100220008076C650D2F81C3243F40003C2F81C3268
:1002300001238B401C430131B942E3DD00230DE073
:100240000F4901EB43124FF00050C2F8080203F1CE
:10025000100252014FF0407088500133AB42EFDB87
:10026000074B5C604FF40061084A51601A6842F025
:1002700001021A600020F0BC70470120FBE700BFBC
:1002800000400B40000E0E402B10001000E100E07B
:1002900008B502220121014B984708BDAD010800B5
:1002A000244B1B6913F0060F42D013F0020F3FD00E
:1002B0004B0103F1402303F53023D3F8103213F43C
:1002C000000F33D070B44B0103F1402303F530230A
:1002D000D3F81442D3F81822D3F80852C5F38A454C
:1002E0000580D3F81052C5F303458570002303E061
:1002F000C618F270120A0133AB4205DA032BF7DCA1
:10030000C618F470240AF6E70A4B01F110025201F4
:100310004FF08070985003EB4111D1F81C3243F438
:100320000003C1F81C32002070BC704701207047E8
:10033000704700BF00400B4010B5184B1C6914F00B
:10034000060F1FD014F0020F0BD114F0040F10D0C1
:1003500002211348134B98471348144B9847002326
:100360000CE001210E480F4B984711480F4B98475E
:10037000F5E710480D4B9847F1E70133084A9278AA
:100380009342FADB14F0010F02D00122034B9A6072
:100390004FF40062084BC3F8842110BD00400B40AD
:1003A00060040020A102080094140800250C080035
:1003B00070140800B814080000E100E00A4BA3FB29
:1003C0000030800C0138094B5860002199601A6890
:1003D00042F006021A60064A82F820101A6842F0BB
:1003E00001021A60704700BF83DE1B4310E000E08B
:1003F00000ED00E0024A136801331360704700BF4C
:1004000058040020014B1868704700BF58040020B2
:1004100010B50446034B98470444024B9847844266
:10042000FBD110BD05040800074A136843F04003E0
:100430001360A2F5C332FC3A136843F480331360AF
:100440000222024B1A60704700070E4010800C40D9
:10045000144B196840F20760014319601A6902439E
:100460001A61114A116841F4FF711160516941F438
:10047000FF715161A2F540620C49C2F80C1111697B
:1004800041F4005111611A6B42F400721A631A6B45
:1004900042F480621A634FF4FF73054A13604032DE
:1004A0001360704700140E4000120E400D00001043
:1004B00020120E4028B1064A136B43F48063136385
:1004C0007047034A536B43F480635363704700BF24
:1004D00000140E40014B1860704700BF20800C4094
:1004E00010B5064C636B43F0020363636420044B56
:1004F0009847236B43F00203236310BD00140E40A2
:10050000110408002DE9F0471E4D01272F604FF020
:10051000040AC5F800A01920DFF87C90C847DFF86E
:100520007C80D8F80040FC40174EC6F800A0192087
:10053000C847D8F800002B6843F002032B603368EB
:1005400043F002033360114B1F6323021BB2C0F35D
:1005500047000343C3EB03230D4A82FB0312D81762
:10056000C0EB223000B2002804DC10F1FF0F06DBE4
:10057000BDE8F087074B98470020BDE8F0876FF093
:10058000FE00F5E734140E4030140E4000140E4007
:100590006B298274E1040800110408003C120E402B
:1005A000084A094B1A604FF08242084B1A60084A09
:1005B000084B1A600023084A1360084A1360084A6F
:1005C000136070470000C040880400207C040020B5
:1005D000CDCC4C3F6C040020740400208404002027
:1005E000800400202DE9F04106460846334B984729
:1005F0000446334B1860334D86EAE670A0EBE67094
:10060000A847314F01462046B847304B984704B2BF
:100610002046A84705462E4E31682E4B984730603D
:100620002D4B1E6831462D4B98472D4B18602D4B96
:1006300019682846B84731462B4B98472B4B186012
:1006400021462B482B4B9847002C2CDD234F2A4B5F
:1006500019682846B8471D4EB0470446204B196814
:10066000264B1868B847B0478046204B1968244B82
:100670001868B847B0474444A4B2204400B2164BAF
:10068000B3F9043080EAE072A2EBE07293420EDA32
:1006900000280CDB1846134B1D600028B8BF4042F1
:1006A00000B2BDE8F08100220D4B1A60CEE7934204
:1006B000F1DA0028EFDC584200B2ECE7650F0800E1
:1006C000740400206D0F0800010E0800B512080028
:1006D00078040020050E0800000000201510080016
:1006E00084040020800400207D1108007004002094
:1006F000E4140800250C0800880400207C04002075
:100700006C040020FEE7000008B5114B114A9A4224
:1007100009D00F4B0F4A03E011681960043304320B
:100720000D498B42F8D30D4B02E000221A600433CE
:100730000B4A9342F9D30B4B23F0604323F07F0322
:10074000094A9360094B9847094B9847FEE700BF59
:1007500000000020781508003C0400203C04002024
:10076000F40400200000080000ED00E00113080080
:10077000310808004FF48063204A136002F50072CC
:1007800013601F4B1B6A13F0807F07D11D4A1C4B5F
:100790001A621B4B9B6E13F0010FFAD01A4A184BCA
:1007A0001A62174B9B6E13F4803FFAD0144A136BF6
:1007B00023F0030343F001031363114B9B6E13F00B
:1007C000080FFAD0114A0E4B9A620D4B9B6E13F034
:1007D000020FFAD011220A4B1A63094B9B6E13F0D9
:1007E000080FFAD01222064B1A63054B9B6E13F0CA
:1007F000080FFAD0064A074B1A607047000A0E40ED
:1008000000060E400908370009083701013F0D2096
:1008100000BD01050800002010B4401A019CE41A34
:1008200004FB00F0521A90FBF2F0184410BC704721
:10083000F0B583B03A483B4B98473B4B98473B4A0F
:10084000536843F400435360394B984739483A4B57
:1008500098473A4B98473A4B98473A4B98473A4B08
:1008600098473A4B98473A4B98473A483A4B9847FB
:1008700000203A4B98476FF0FF00394B984700260D
:1008800018E00020354B9847013EF6B230E00346B1
:10089000002843DB43F3CF00314B984739463148BA
:1008A0002D4B984748F2A0602F4B98472F4B984705
:1008B0002F4B98472F4B98472F4FF8792F4B98473E
:1008C0007C79F8784FF4026300934FF46673FF224B
:1008D00000212B4FB8472B4B9847002DB8BF6D42D6
:1008E000651B002DCDDB01201C4B98470136F6B26D
:1008F00021462548184B9847244B984705462146E2
:10090000234B984785EAE577A7EBE5773C1B09344D
:10091000122CBCD80020124B9847BFE7C31DB9E783
:1009200000BD0105BD03080075070800501A0E4000
:10093000050D08006501290091020800490C080016
:10094000610108002904080051040800A1050800FD
:10095000BD0C0800F0140800250C0800B5040800C0
:10096000D5040800101508001104080095010800BE
:10097000A10108003903080060040020E10C080010
:10098000190808009D0C080000150800050508005E
:10099000E505080008B5C8B2014B984708BD00BF7F
:1009A0006D0D08002DE9F04107460E46151E02DDCB
:1009B0000A46002104E04FF020080EE00131013228
:1009C00010780028FAD1A94201DA6D1A00E000255A
:1009D00013F0020F06D14FF0200813F001040AD0E3
:1009E000002410E04FF03008F7E7414638460D4B41
:1009F00098470134013D002DF7DC04E03846094BEF
:100A000098470134013631780029F7D105E0414695
:100A10003846044B98470134013D002DF7DC204651
:100A2000BDE8F08195090800F0B585B007460C983F
:100A300051B11E460C4613B10A2A12D0002604AD4D
:100A4000002305F8013D18E030238DF80430002321
:100A50008DF805300B9B0A9A01A938461B4CA0471C
:100A600029E0002901DB0026E9E74C420126E6E700
:100A7000303305F8013DB4FBF2F44CB1B4FBF2F3B2
:100A800002FB1343092BF3DDA0F13A010B44EFE71E
:100A900056B10A9B1BB10B9B13F0020F0DD12D23F6
:100AA00005F8013C013D00260B9B0A9A2946384671
:100AB000064CA047304405B0F0BD2D213846044B0C
:100AC00098470A9B013B0A93EEE700BFA50908007F
:100AD00095090800F0B589B006460C460592002538
:100AE00081E0A21C01238BE0013443F00203227851
:100AF000302AF9D0002206E002EB82025000A1F178
:100B00003002024401342178A1F13000C0B209283A
:100B1000F2D9732918D0642922D078292FD05829E6
:100B20003CD0752949D063295CD10599081D0590F1
:100B300009788DF81C1000218DF81D1007A930468A
:100B4000344FB84705444DE00599081D05900968E4
:100B500021B130462F4FB847054443E02E49F8E70E
:100B60000599081D05900968612002900193009283
:100B700001230A223046294FB847054432E005993F
:100B8000081D0590096861200290019300920023DE
:100B900010223046214FB847054423E00599081D2F
:100BA00005900968412002900193009200231022D1
:100BB00030461A4FB847054414E00599081D0590C2
:100BC0000968612002900193009200230A223046B6
:100BD000124FB847054405E0144621783046104BC3
:100BE000984701350134237863B1252BF5D1621C78
:100BF00063783BB1252BEFD02D2B3FF472AF002350
:100C0000144674E716B1336800221A70284609B0FA
:100C1000F0BD00BFA509080028150800290A080032
:100C2000950908000FB400B583B004AA52F8041B5C
:100C300001920020034B984703B05DF804EB04B029
:100C4000704700BFD50A0800124A136843F010032A
:100C5000136002F60432136843F4002313606C320D
:100C6000136843F4002313602A220B4B1A6040F2EE
:100C70000B3203F528731A6044F620620C331A60B5
:100C800040F2DC52083B1A602022A3F528731A6058
:100C9000704700BF00070E4000400940B0F5617F7B
:100CA00001DA4FF4617040F63403984200DD1846D3
:100CB000014B1860704700BFA4420940074A1368FF
:100CC00043F4007313601032136843F4007313602D
:100CD0005032136843F400731360704700120E40E3
:100CE00028B1064A136843F4007313607047044A3E
:100CF000136843F400731360704700BF30120E4056
:100D000034120E40164B00221A705A70154B4FF4D5
:100D10004071596459601A6F186F024022F4407292
:100D20001A6759664FF48072A3F500631A6103F5E0
:100D30000073AC21196040F2232119624FF4006165
:100D4000596040F20221C3F820114FF0FF31D96001
:100D5000E121996004490A6050221A60704700BF7F
:100D60008C040020000E0E4000E100E0074B5B69A0
:100D700013F0020F08D0054BD861044B5B6913F4E4
:100D8000007FFAD0002070470120704700080E4015
:100D900008B5154B5B6913F0E00F03D04FF4A87151
:100DA000114A116013F0010F12D010484278531C01
:100DB000594203F03F0301F03F0158BF4B42017815
:100DC0008B4206D00849886908490A4490704B70E4
:100DD00008BD0748074B9847044B5978024A926967
:100DE0000B449A7008BD00BF00080E408C04002020
:100DF00030150800250C080080F0004002E000BF1C
:100E000081F0004142001FBF5FEA410392EA030FF5
:100E10007FEA226C7FEA236C6AD04FEA1262D2EB3F
:100E20001363C1BFD218414048404140B8BF5B4244
:100E3000192B88BF704710F0004F40F4000020F0DD
:100E40007F4018BF404211F0004F41F4000121F0F3
:100E50007F4118BF494292EA030F3FD0A2F101023D
:100E600041FA03FC10EB0C00C3F1200301FA03F17B
:100E700000F0004302D5494260EB4000B0F5000F9E
:100E800013D3B0F1807F06D340084FEA310102F15D
:100E90000102FE2A51D2B1F1004F40EBC25008BF0F
:100EA00020F0010040EA03007047490040EB0000D9
:100EB00010F4000FA2F10102EDD1B0FA80FCACF108
:100EC000080CB2EB0C0200FA0CF0AABF00EBC25007
:100ED00052421843BCBFD0401843704792F0000FF5
:100EE00081F4000106BF80F400000132013BB5E748
:100EF0004FEA41037FEA226C18BF7FEA236C21D0BE
:100F000092EA030F04D092F0000F08BF0846704722
:100F100090EA010F1CBF0020704712F07F4F04D1F0
:100F2000400028BF40F00040704712F100723CBF03
:100F300000F50000704700F0004343F0FE4040F42D
:100F4000000070477FEA226216BF08467FEA2363EB
:100F50000146420206BF5FEA412390EA010F40F4D6
:100F6000800070474FF0000304E000BF10F0004322
:100F700048BF40425FEA000C08BF704743F0964309
:100F800001464FF000001CE050EA010208BF704724
:100F90004FF000030AE000BF50EA010208BF7047AB
:100FA00011F0004302D5404261EB41015FEA010CC0
:100FB00002BF84460146002043F0B64308BFA3F1B8
:100FC0008053A3F50003BCFA8CF2083AA3EBC2539A
:100FD00010DB01FA02FC634400FA02FCC2F12002B9
:100FE000BCF1004F20FA02F243EB020008BF20F0F0
:100FF0000100704702F1200201FA02FCC2F1200256
:1010000050EA4C0021FA02F243EB020008BF20EA4A
:10101000DC7070474FF0FF0C1CEAD0521EBF1CEA78
:10102000D15392EA0C0F93EA0C0F6FD01A4480EA66
:10103000010C400218BF5FEA41211ED04FF000634F
:1010400043EA501043EA5111A0FB01310CF000407B
:10105000B1F5000F3EBF490041EAD3715B0040EAA1
:10106000010062F17F02FD2A1DD8B3F1004F40EB71
:10107000C25008BF20F00100704790F0000F0CF044
:10108000004C08BF49024CEA502040EA51207F3A08
:10109000C2BFD2F1FF0340EAC250704740F40000E3
:1010A0004FF00003013A5DDC12F1190FDCBF00F0D4
:1010B00000407047C2F10002410021FA02F1C2F182
:1010C000200200FA02FC5FEA310040F1000053EA1E
:1010D0004C0308BF20EADC70704792F0000F00F06C
:1010E000004C02BF400010F4000F013AF9D040EA72
:1010F0000C0093F0000F01F0004C02BF490011F406
:10110000000F013BF9D041EA0C018FE70CEAD15303
:1011100092EA0C0F18BF93EA0C0F0AD030F0004C83
:1011200018BF31F0004CD8D180EA010000F0004037
:10113000704790F0000F17BF90F0004F084691F0F5
:10114000000F91F0004F14D092EA0C0F01D142022F
:101150000FD193EA0C0F03D14B0218BF084608D1F8
:1011600080EA010000F0004040F0FE4040F4000042
:10117000704740F0FE4040F4400070474FF0FF0CD5
:101180001CEAD0521EBF1CEAD15392EA0C0F93EA1C
:101190000C0F69D0A2EB030280EA010C49024FEA6E
:1011A000402037D04FF0805343EA111143EA101327
:1011B0000CF000408B4238BF5B0042F17D024FF4DF
:1011C000000C8B4224BF5B1A40EA0C00B3EB510FBA
:1011D00024BFA3EB510340EA5C00B3EB910F24BFA3
:1011E000A3EB910340EA9C00B3EBD10F24BFA3EB28
:1011F000D10340EADC001B0118BF5FEA1C1CE0D1F0
:10120000FD2A3FF650AF8B4240EBC25008BF20F0A2
:10121000010070470CF0004C4CEA50207F32C2BFF6
:10122000D2F1FF0340EAC250704740F400004FF093
:101230000003013A37E792F0000F00F0004C02BFC4
:10124000400010F4000F013AF9D040EA0C0093F08E
:10125000000F01F0004C02BF490011F4000F013BE8
:10126000F9D041EA0C0195E70CEAD15392EA0C0F50
:1012700008D142027FF47DAF93EA0C0F7FF470AF88
:10128000084676E793EA0C0F04D14B023FF44CAFCB
:1012900008466EE730F0004C18BF31F0004CCAD160
:1012A00030F000427FF45CAF31F000437FF43CAF9C
:1012B0005FE700BF4FEA4002B2F1FE4F0FD34FF09D
:1012C0009E03B3EB12620DD94FEA002343F00043B3
:1012D00010F0004F23FA02F018BF404270474FF061
:1012E0000000704712F1610F01D1420205D110F0E8
:1012F000004008BF6FF0004070474FF0000070479B
:1013000070B50F4E0F4D761BB61018BF002405D0D8
:10131000013455F8043B9847A642F9D10A4E0B4DCB
:1013200000F018F9761BB61018BF002406D001345F
:1013300055F8043B9847A642F9D170BD70BD00BF77
:1013400060150800601508006815080060150800A1
:10135000024B13B1024800F005B8704700000000CE
:1013600071130800002301461A46184600F01EB803
:1013700038B50A4C0A4D641BA4100AD004F180430E
:10138000013B05EB8305013C55F804399847002CD7
:10139000F9D1BDE8384000F0E7B800BF7815080083
:1013A00074150800704700BF704700BF2DE9F8436F
:1013B0002C4D0646286898460F469146FFF7F2FFE7
:1013C000294B1C68D4F84831002B3ED05A681F2A9C
:1013D0001CDC02F1010E76B1012103EB8204C4F89A
:1013E0008890D3F8880191400843022EC3F8880101
:1013F000C4F8088123D00232C3F804E0286843F817
:101400002270FFF7D1FF0020BDE8F883174B0BB324
:101410004FF4C870AFF300800346D8B10020D4F871
:1014200048114FF0010E586019600246C4F8483167
:10143000C3F88801C3F88C01002EDCD0CCE7D3F8C8
:101440008C010143C3F88C11D5E704F5A673C4F8E9
:101450004831BBE72868FFF7A7FF4FF0FF30BDE832
:10146000F88300BF38040020501508000000000079
:1014700043414E30206D6573736167652061727200
:101480006976656420696E206D61696C626F782091
:10149000310A0D0043414E30206D657373616765FD
:1014A000206172726976656420696E206D61696C75
:1014B000626F7820320A0D0043414E30206D657313
:1014C00073616765206172726976656420696E2058
:1014D0006E6F6E2D75736564206D61696C626F78D7
:1014E0000A0D00004572726F723A202564200A00CE
:1014F0005354415254494E472E2E2E2000000000D6
:10150000706F732069733A202564200A0000000080
:10151000456E636F64657220506F736974696F6E96
:101520003A202564200A0000286E756C6C290000A2
:101530004552523A20554152542052582062756605
:101540006665722069732066756C6C0A0D00000078
:1015500010000020F8B500BFF8BC08BC9E467047DC
:101560005113080019010800F8B500BFF8BC08BC09
:081570009E467047F5000800DB
:1015780017B7D138983AFF0000093D000000000075
:1015880000000000FC02002064030020CC030020BF
:101598000000000000000000000000000000000043
:1015A8000000000000000000000000000000000033
:1015B8000000000000000000000000000000000023
:1015C8000000000000000000000000000000000013
:1015D8000000000000000000000000000000000003
:1015E80000000000000000000000000000000000F3
:1015F80000000000000000000000000000000000E3
:1016080000000000000000000000000000000000D2
:1016180000000000000000000000000000000000C2
:1016280000000000000000000100000000000000B1
:101638000E33CDAB34126DE6ECDE05000B00000076
:101648000000000000000000000000000000000092
:101658000000000000000000000000000000000082
:101668000000000000000000000000000000000072
:101678000000000000000000000000000000000062
:0C19A8000000000000000000D00400203F
:040000038000000079
:00000001FF
