:100000000C9438000C9455000C9455000C94550039
:100010000C9455000C9455000C9455000C9455000C
:100020000C9455000C9455000C9455000C945500FC
:100030000C9455000C9455000C9455000C945500EC
:100040000C9455000C9455000C9455000C945500DC
:100050000C9455000C9455000C9455000C945500CC
:100060000C9455000C9455000C9455000C945500BC
:1000700011241FBECFEFD4E0DEBFCDBF11E0A0E062
:10008000B1E0EAE6FDE002C005900D92A83BB107A1
:10009000D9F721E0A8EBB1E001C01D92A23CB20764
:1000A000E1F70E9401010C94B3060C94000087B3A1
:1000B000816087BB83B7886083BF83B78F7B83BF33
:1000C00083B78F7D83BF83B7806183BF83B78B7F07
:1000D00083BF83B78D7F83BF83B7816083BF11BE2A
:1000E00008950E94570008951092001420E030E017
:1000F00004C0909100142F5F3F4F482F50E04217EB
:100100005307BCF7892F089580910014089585B78F
:10011000806885BF80B7806280BF08950E94C70154
:1001200060E08FE00E947C018EE00E946A01807E88
:1001300021F086E091E00E94770208950F931F93CB
:10014000CF93DF938C01FC01608171817695679577
:10015000769567957695679581E30E947C01F80115
:1001600060816295660F607E82E30E947C01F801E7
:10017000628185E30E947C01C0E0D0E009C0F80103
:10018000EC0FFD1F63818C2F8A5C0E947C012196FD
:10019000F801828190E0C817D9078CF381E80E94AA
:1001A0009201DF91CF911F910F91089588B38460E0
:1001B00088BB87B3846087BB0895CF93DF93EC013E
:1001C00080E00E94740090E09983888381E00E941F
:1001D000740090E09B838A8382E00E94740090E028
:1001E0009D838C8383E00E94740090E09F838E83C4
:1001F00080B3807290E099878887CE01DF91CF919C
:100200000895CF93DF93CDB7DEB765970FB6F89417
:10021000DEBF0FBECDBF8FE190E00E94010261E121
:1002200072E08BE092E00E9416020E9487000E941A
:100230008E000E9471000E94D60087B38D7F87BB1D
:1002400087B38B7F87BB81B38F7E81BB8FE491E0C7
:100250000E9477020E94840010E0CE010C960E945A
:10026000DD00812F90E09A83898385E08B838C85E4
:100270009D858C832E853F852D83488959894E83A2
:100280006A897B896F83EC89FD89E8871F92EF93E8
:100290001F926F931F924F931F922F931F928F93D2
:1002A0008BE591E09F938F930E946102CE010196AE
:1002B0000E949E002FEF8FEF92E0215080409040EF
:1002C000E1F700C000C01F5F0FB6F894DEBF0FBE9D
:1002D000CDBFC3CFCF93C82F88B38F7E88BB83E0B9
:1002E0000E94F8018C2F0E94F8010E94FC0198B333
:1002F000906198BBCF910895CF93DF93D82FC62FED
:1003000088B38F7E88BB82E00E94F8018D2F0E9407
:10031000F8018C2F0E94F80188B3806188BBDF91BF
:10032000CF91089598B39F7E98BB0E94F80188B33F
:10033000806188BB08951F93CF93DF93182FD62F2A
:10034000C42F88B38F7E88BB85E00E94F801812F7F
:100350000E94F8018D2F0E94F8018C2F0E94F80155
:1003600088B3806188BBDF91CF911F91089588B3D6
:100370008F7E88BB80EC0E94F80188B3806188BBC7
:100380008FEF9FE20197F1F700C0000008950E94EF
:10039000EC010E94B7018EE00E946A01807E8038E5
:1003A00021F089E891E00E94770240E061E08BE271
:1003B0000E949B0140E061E08CE20E949B0163E0AF
:1003C0008AE20E947C0161EB89E20E947C0165E087
:1003D00088E20E947C01089587B3806B87BB87B356
:1003E000817B87BB81E58DB988B3806188BB089527
:1003F0008FB9779BFECF089580E00E94F8018FB1FE
:1004000008959C0122273F7030BD89B988ED8AB9D3
:1004100086E880BD08955D9BFECF8CB980E090E0BA
:1004200008955F9BFECF8CB190E008950F931F93CA
:10043000CF93DF93009731F46115710519F480E0D3
:1004400090E03AC08B01EC016EE070E081E090E05A
:100450000E948804FC01892B91F380E883830115B5
:10046000110571F01387028781E883838091B801B9
:100470009091B901892B21F4F093B901E093B8016F
:100480002097C9F0D187C087838182608383809160
:10049000BA019091BB01892B71F4F093BB01E093F9
:1004A000BA018091BC019091BD01892B21F4F09398
:1004B000BD01E093BC01CF01DF91CF911F910F915E
:1004C0000895A0E0B0E0E7E6F2E00C948C06AE01FF
:1004D0004B5F5F4FFA0161917191AF018091BA0159
:1004E0009091BB010E94A702E2E00C94A8060F9332
:1004F0001F93CF93DF93E091BA01F091BB01238169
:1005000021FF1BC08C01D0E0C0E0F80181918F0178
:100510006091BA017091BB01DB011896ED91FC91DD
:100520001997882331F00995892B79F3DFEFCFEF05
:10053000ECCF8AE00995892B19F08FEF9FEF02C06D
:100540008D2F9C2FDF91CF911F910F910895ABE0DC
:10055000B0E0EDEAF2E00C947C066C017B018A01CC
:10056000FC0117821682838181FFCCC1CE010196E6
:100570003C01F6019381F70193FD859193FF8191F1
:100580007F01882309F4BAC1853239F493FD85913E
:1005900093FF81917F01853229F4B60190E00E949A
:1005A000E205E7CF912C212C312CFFE1F315D8F097
:1005B0008B3279F038F4803279F08332A1F4232D34
:1005C00020611DC08D3261F0803369F4232D2160DC
:1005D00016C0832D8260382EE32DE4603E2E2AC0A3
:1005E000F32DF8601DC037FC2DC020ED280F2A30F8
:1005F00040F08E32B9F436FC81C1232D2064322EB6
:1006000019C036FE06C08AE0989E200D1124922E55
:1006100011C0EAE02E9E200D1124222EF32DF0624F
:100620003F2E08C08C3621F4832D8068382E02C0FE
:10063000883641F4F70193FD859193FF81917F0105
:100640008111B3CF982F9F7D9554933028F40C5F80
:100650001F4F9FE399830DC0833631F0833771F0CC
:10066000833509F059C021C0F801808189830E5F6C
:100670001F4F88248394912C530113C02801F2E06A
:100680004F0E511CF801A080B18036FE03C0692DC9
:1006900070E002C06FEF7FEFC5010E94D7054C01EB
:1006A0008201F32DFF773F2E16C0280122E0420E73
:1006B000511CF801A080B18036FE03C0692D70E0A6
:1006C00002C06FEF7FEFC5010E94C5054C01F32DFD
:1006D000F0683F2E820133FC1BC0822D90E088160B
:1006E0009906B0F4B60180E290E00E94E2052A94F7
:1006F000F4CFF50137FC859137FE81915F01B6019A
:1007000090E00E94E20521102A9421E0821A9108CB
:100710008114910471F7E8C0843611F0893641F5EF
:10072000F80137FE07C060817181828193810C5F7F
:100730001F4F08C060817181072E000C880B990B38
:100740000E5F1F4FF32DFF763F2E97FF09C0909548
:100750008095709561957F4F8F4F9F4FF0683F2E2A
:100760002AE030E0A3010E941E06882E861845C0AC
:10077000853731F4232D2F7EB22E2AE030E025C0BC
:10078000932D997FB92E8F36C1F018F4883579F002
:10079000B5C0803719F0883721F0B0C0E92FE0618B
:1007A000BE2EB4FE0DC0FB2DF460BF2E09C034FE7A
:1007B0000AC0292F2660B22E06C028E030E005C00E
:1007C00020E130E002C020E132E0F801B7FE07C0CE
:1007D00060817181828193810C5F1F4F06C06081AF
:1007E000718180E090E00E5F1F4FA3010E941E0602
:1007F000882E8618FB2DFF773F2E36FE0DC0232D49
:100800002E7FA22E891458F434FE0BC032FC09C08E
:10081000832D8E7EA82E05C0B82CA32C03C0B82C27
:1008200001C0B92CA4FE0FC0FE01E80DF11D8081AE
:10083000803321F49A2D997EA92E09C0A2FE06C00C
:10084000B394B39404C08A2D867809F0B394A3FCC2
:1008500011C0A0FE06C0B21488F4280C922C9B187C
:100860000EC0B21460F4B60180E290E00E94E2058E
:10087000B394F7CFB21418F42B1802C0982C212C83
:10088000A4FE10C0B60180E390E00E94E205A2FE43
:1008900017C0A1FC03C088E790E002C088E590E0A3
:1008A000B6010CC08A2D867859F0A1FE02C08BE2F9
:1008B00001C080E2A7FC8DE2B60190E00E94E20553
:1008C000891438F4B60180E390E00E94E2059A941E
:1008D000F7CF8A94F301E80DF11D8081B60190E015
:1008E0000E94E2058110F5CF222009F442CEB60124
:1008F00080E290E00E94E2052A94F6CFF60186811C
:10090000978102C08FEF9FEF2B96E2E10C9498063F
:100910000F931F93CF93DF93869F8001879F100DC6
:10092000969F100D1124C8010E94A404EC010097A9
:1009300029F0A80160E070E00E94D005CE01DF91AF
:10094000CF911F910F9108950F931F93CF93DF9332
:100950008230910510F482E090E0E091C001F091C6
:10096000C10120E030E0A0E0B0E0309719F1408113
:1009700051810281138148175907C8F084179507E0
:1009800069F4109731F012960C93129713961C93FA
:1009900027C00093C0011093C10122C02115310569
:1009A00019F04217530718F49A01BD01EF01DF0156
:1009B000F801DBCF21153105F9F0281B390B243064
:1009C000310580F48A819B816115710521F0FB015D
:1009D0009383828304C09093C1018093C001FE0180
:1009E000329644C0FE01E20FF31F8193919322508F
:1009F0003109398328833AC02091BE013091BF016B
:100A0000232B41F420910201309103013093BF0167
:100A10002093BE0120910001309101012115310583
:100A200041F42DB73EB74091040150910501241BBC
:100A3000350BE091BE01F091BF01E217F307A0F47E
:100A40002E1B3F0B2817390778F0AC014E5F5F4F24
:100A50002417350748F04E0F5F1F5093BF01409396
:100A6000BE018193919302C0E0E0F0E0CF01DF91FD
:100A7000CF911F910F910895CF93DF93009709F4C1
:100A800081C0FC01329713821282A091C001B09103
:100A9000C101109781F420813181820F931F209131
:100AA000BE013091BF012817390751F5F093BF01FE
:100AB000E093BE0167C0ED0120E030E0CE17DF0714
:100AC00040F44A815B819E0141155105F1F0EA0134
:100AD000F5CFD383C28340815181840F951FC817FE
:100AE000D90759F488819981840F951F02969183C3
:100AF00080838A819B81938382832115310529F428
:100B0000F093C101E093C0013DC0E901FB83EA839A
:100B100049915991C40FD51FEC17FD0761F48081ED
:100B20009181840F951F0296E901998388838281C0
:100B300093819B838A83E0E0F0E012968D919C91F3
:100B40001397009719F0FD01DC01F7CF8D919C916F
:100B500011979D012E5F3F4F820F931F2091BE0181
:100B60003091BF012817390769F4309729F41092A2
:100B7000C1011092C00102C013821282B093BF0162
:100B8000A093BE01DF91CF910895FC0105906150C3
:100B900070400110D8F7809590958E0F9F1F089593
:100BA000DC0101C06D9341505040E0F70895FC0115
:100BB0006150704001900110D8F7809590958E0F8C
:100BC0009F1F08950F931F93CF93DF93FB01238102
:100BD00021FD03C08FEF9FEF2CC022FF16C046817E
:100BE0005781248135814217530744F4A081B18194
:100BF0009D012F5F3F4F318320838C932681378166
:100C00002F5F3F4F3783268314C08B01EC01FB011C
:100C10000084F185E02D0995892BE1F6D80116961F
:100C20008D919C911797019617969C938E9316978A
:100C3000CE01DF91CF911F910F910895FA01AA275C
:100C4000283051F1203181F1E8946F936E7F6E5F0F
:100C50007F4F8F4F9F4FAF4FB1E03ED0B4E03CD0BD
:100C6000670F781F891F9A1FA11D680F791F8A1FA0
:100C7000911DA11D6A0F711D811D911DA11D20D007
:100C800009F468943F912AE0269F11243019305DC1
:100C90003193DEF6CF010895462F4770405D4193B2
:100CA000B3E00FD0C9F7F6CF462F4F70405D4A33FF
:100CB00018F0495D31FD4052419302D0A9F7EACFC7
:100CC000B4E0A6959795879577956795BA95C9F7F6
:100CD00000976105710508959B01AC010A2E0694E9
:100CE0005795479537952795BA95C9F7620F731FA2
:100CF000841F951FA01D08952F923F924F925F92DF
:100D00006F927F928F929F92AF92BF92CF92DF921B
:100D1000EF92FF920F931F93CF93DF93CDB7DEB780
:100D2000CA1BDB0B0FB6F894DEBF0FBECDBF099414
:100D30002A88398848885F846E847D848C849B846B
:100D4000AA84B984C884DF80EE80FD800C811B8179
:100D5000AA81B981CE0FD11D0FB6F894DEBF0FBEA8
:0A0D6000CDBFED010895F894FFCF18
:100D6A000000C2012000204D435032353135206940
:100D7A0073204E4F5420696E206E6F726D616C2025
:100D8A006D6F6465210063616E20696420256420AB
:100D9A000A0063616E206C656E6774682025640AB8
:100DAA000063616E2064617461202573200A005318
:100DBA0074617274696E672E2E2E00783A2564204B
:100DCA002C20793A2025642C206C6564743A2025FD
:100DDA00642C2072696768743A2025642C20627535
:100DEA0074746F6E3A20256400204D4350323531B9
:100DFA0035206973204E4F5420696E20636F6E66EA
:100E0A00696773206D6F646520616674657220720C
:080E1A006573657420210000DE
:00000001FF
